:1000000030C04AC049C048C047C046C039C244C0D9
:1000100043C042C041C040C03FC03EC03DC03CC0E4
:100020003BC03AC039C04E414E494E495459494EE1
:1000300046CDCCCC3D0AD7233C17B7D13877CC2B53
:10004000329595E6241FB14F0A000020410000C8F8
:100050004200401C4620BCBE4CCA1B0E5AAEC59D79
:10006000740011241FBECFE5D4E0DEBFCDBF10E089
:10007000A0E6B0E0ECECFCE002C005900D92AC3ADA
:10008000B107D9F721E0ACEAB0E001C01D92A4337A
:10009000B207E1F76BD218C6B3CFFC010190002084
:1000A000E9F73197E81BF90BDC019D01281B390B9F
:1000B0002E173F072CF45D9BFECF2D912CB9F5CF69
:1000C00008958091B9009091BA00A091BB00B091C1
:1000D000BC008093B5009093B600A093B700B09396
:1000E000B8008091BD009091BE00A091BF00B0917A
:1000F000C0008093B9009093BA00A093BB00B09366
:10010000BC008091C1009091C200A091C300B09149
:10011000C4008093BD009093BE00A093BF00B09335
:10012000C0008093B1009093B200A093B300B0934D
:10013000B40008958091C1009091C200A091C300C5
:10014000B091C4008093B1009093B200A093B3002B
:10015000B093B4004091BD005091BE006091BF00CB
:100160007091C0004093C1005093C2006093C300DF
:100170007093C4004091B9005091BA006091BB00E7
:100180007091BC004093BD005093BE006093BF00CF
:100190007093C0004091B5005091B6006091B700D7
:1001A0007091B8004093B9005093BA006093BB00BF
:1001B0007093BC008093B5009093B600A093B700F5
:1001C000B093B80008950F931F93813161F1A8F4A3
:1001D000803109F04CC02091BD003091BE004091AB
:1001E000BF005091C0006091C1007091C200809129
:1001F000C3009091C400BED13DC0823131F1833142
:10020000B1F52091BD003091BE004091BF005091EA
:10021000C0006091C1007091C2008091C3009091B4
:10022000C4000CD227C02091BD003091BE00409187
:10023000BF005091C0006091C1007091C2008091D8
:10024000C3009091C40095D115C02091BD0030919C
:10025000BE004091BF005091C0006091C1007091FC
:10026000C2008091C3009091C400A1D203C060E09D
:1002700070E0CB010091C1001091C2002091C30039
:100280003091C4000093B1001093B2002093B300EA
:100290003093B4006093C1007093C2008093C30098
:1002A0009093C4008091B9009091BA00A091BB00D6
:1002B000B091BC008093BD009093BE00A093BF009E
:1002C000B093C0008091B5009091B600A091B700A6
:1002D000B091B8008093B9009093BA00A093BB008E
:1002E000B093BC001F910F9108958C3028F58B308E
:1002F000A9F0A091940091E09A0F90939400B0E03F
:10030000AB56BF4FE82FF0E0E857FF4F80818C934A
:10031000E92FF0E0EB56FF4F108203C08DE280938F
:10032000950085E990E0A6D26093C1007093C20069
:100330008093C3009093C40008958AB188618AB9FC
:1003400010BC83E389B9B89A8FEF87BB88BB14BA16
:100350008FE085BB11BA8CE382BB8FEF9FE30197DF
:10036000F1F700C0F8941FBC88E08EBD8EB58560A3
:100370008EBD89B7806189BF8CEF9FE09BBD8ABD30
:10038000789408951092B0001092AF0041E050E0D0
:10039000A5E08091AF009091B000853091050CF000
:1003A0006EC098B39A0101C0220F8A95EAF7822F96
:1003B0008095892388BB8FEF9FE30197F1F700C0F9
:1003C0001092AE001092AD006091AF007091B0003D
:1003D0008091AD009091AE0084309105B4F523B3C7
:1003E00030E0082E02C0359527950A94E2F720FDEB
:1003F00006C0A89FF001A99FF00D112413C020B3DF
:1004000030E0FC01329602C035952795EA95E2F777
:1004100020FD10C09C012C5F3F4FA29FF001A39FC5
:10042000F00D1124E60FF71FE05AFF4F20812093B3
:10043000AC0005C02091AC0021111092AC000196D7
:100440009093AE008093AD00C3CF28B3CA01009053
:10045000AF0002C0880F991F0A94E2F7822B88BB75
:100460008FEF9FE30197F1F700C08091AF0090916B
:10047000B00001969093B0008093AF008ACF0895AA
:100480001F920F920FB60F9211242F933F934F9309
:100490005F936F937F938F939F93AF93BF93EF93EC
:1004A000FF9370DFFF91EF91BF91AF919F918F917B
:1004B0007F916F915F914F913F912F910F900FBE60
:1004C0000F901F9018958F3F51F0E091C70091E079
:1004D0009E0F9093C700F0E0E753FF4F808380E0CA
:1004E00008958C30A1F030F08D3031F08E3069F409
:1004F000E8DD0BC0FADE0BC01092C1001092C20002
:100500001092C3001092C40002C081E0089580E000
:10051000089580E0E091C700E93650F481E08E0F45
:100520008093C700F0E0E753FF4F8081DADFF2CF1E
:1005300008950895089585EA90E0AFDD8091C500A3
:10054000882399F08091C600811104C08091C80071
:10055000C8DF09C0823021F48091C800B4DF03C035
:10056000833009F4D6DF1092C5000895E6DEE3DF9C
:10057000FECF5058BB27AA270ED0DFC0D0D030F016
:10058000D5D020F031F49F3F11F41EF4C5C00EF415
:10059000E095E7FBBBC0E92FE1D080F3BA17620713
:1005A00073078407950718F071F49EF5F9C00EF4EF
:1005B000E0950B2EBA2FA02D0B01B90190010C0173
:1005C000CA01A0011124FF27591B99F0593F50F48B
:1005D000503E68F11A16F040A22F232F342F4427E3
:1005E000585FF3CF469537952795A795F0405395DB
:1005F000C9F77EF41F16BA0B620B730B840BBAF0AB
:100600009150A1F0FF0FBB1F661F771F881FC2F715
:100610000EC0BA0F621F731F841F48F48795779529
:100620006795B795F7959E3F08F0B3CF9395880FE0
:1006300008F09927EE0F9795879508950CD07DC007
:1006400075D040F06CD030F021F45F3F19F05EC0FF
:100650005111A7C061C082D098F39923C9F35523E3
:10066000B1F3951B550BBB27AA27621773078407A5
:1006700038F09F5F5F4F220F331F441FAA1FA9F35B
:1006800033D00E2E3AF0E0E830D091505040E6954D
:10069000001CCAF729D0FE2F27D0660F771F881FAE
:1006A000BB1F261737074807AB07B0E809F0BB0B9D
:1006B000802DBF01FF2793585F4F2AF09E3F5105C1
:1006C00068F024C06EC05F3FECF3983EDCF3869583
:1006D00077956795B795F7959F5FC9F7880F911D37
:1006E0009695879597F90895E1E0660F771F881F23
:1006F000BB1F621773078407BA0720F0621B730BD6
:10070000840BBA0BEE1F88F7E095089597F99F6761
:1007100080E870E060E008959FEF80EC0895002489
:100720000A941616170618060906089500240A9456
:1007300012161306140605060895092E0394000CDC
:1007400011F4882352F0BB0F40F4BF2B11F460FF6B
:1007500004C06F5F7F4F8F4F9F4F089557FD905894
:10076000440F551F59F05F3F71F04795880F97FB75
:10077000991F61F09F3F79F087950895121613062F
:100780001406551FF2CF4695F1DF08C0161617065E
:100790001806991FF1CF8695710561050894089593
:1007A000E894BB2766277727CB0197F908950BD0EC
:1007B000C4CFB5DF28F0BADF18F0952309F0A6CF33
:1007C000ABCF1124EECFCADFA0F3959FD1F3950FE5
:1007D00050E0551F629FF001729FBB27F00DB11DC5
:1007E000639FAA27F00DB11DAA1F649F6627B00D55
:1007F000A11D661F829F2227B00DA11D621F739F3E
:10080000B00DA11D621F839FA00D611D221F749F4B
:100810003327A00D611D231F849F600D211D822F92
:10082000762F6A2F11249F5750408AF0E1F08823D9
:100830004AF0EE0FFF1FBB1F661F771F881F9150E6
:100840005040A9F79E3F510570F060CFAACF5F3F9F
:10085000ECF3983EDCF3869577956795B795F79519
:10086000E7959F5FC1F7FE2B880F911D96958795A1
:1008700097F908956627772700C0A0E0B0E0E2E48A
:10088000F4E0E3C1EC017B016115710519F0DB01B6
:100890008D939C938E010F5F1F4F7880872D90E082
:1008A0003ED1892B11F0E801F5CFBDE27B1205C0E6
:1008B0000F5F1F4F7980C1E008C0EBE27E1204C0D9
:1008C0008E010E5F1F4F7980C0E06801F1E0CF1A02
:1008D000D10843E050E06EE270E0C60128D1892BD8
:1008E000E9F4680122E0C20ED11C45E050E069E263
:1008F00070E0C6011CD1892B21F4680187E0C80E85
:10090000D11CE114F10419F0D701CD92DC92C11190
:10091000F9C060E070E080E89FE7FDC043E050E090
:1009200066E270E0C60103D1892B51F4E114F104B1
:1009300009F4EDC00E5F1F4FF70111830083E7C07C
:10094000680160E070E0CB0100E010E0F601D0ED5E
:10095000D70DDA3050F52C2F2260622E2C2F287004
:10096000C2FF05C0211127C00F5F1F4F24C02223E3
:1009700011F001501109A5E0B0E09B01AC0157D185
:100980004B015C01880C991CAA1CBB1CC501B4015D
:100990006D0F711D811D911D6839A9E97A078A07BC
:1009A000A9E19A0740F0C66005C0DE3F51F4C3FDDF
:1009B00044C0C8606C2EBFEFCB1ADB0A7080C62D16
:1009C000C5CF2D2F2F7D2531C1F540814D3211F43A
:1009D000C06106C04B3221F0319621E030E006C004
:1009E0003296D60111964C9122E030E0A0EDA40F92
:1009F000AA3018F0E21BF30B20C040E050E0403872
:100A0000BCE05B075CF49A01220F331F220F331FF7
:100A1000420F531F440F551F4A0F511D3196DF01DE
:100A200011972C91A0EDA20FAA3048F3C4FF03C088
:100A3000519541955109040F151FC1FF07C0E114DD
:100A4000F10421F03197D701ED93FC938CD0C37062
:100A5000C33019F06B017C0106C06B017C01F7FA11
:100A6000F094F7F8F09420E030E0A901C701B60156
:100A700076D0882309F443C017FF06C0119501956D
:100A80001109C5E4D0E002C0CDE5D0E05E01B8E1D7
:100A9000AB1AB1084601BE2DAF2D90E2E92EF12C24
:100AA0000E151F057CF0FE0125913591459154915D
:100AB000B4018B2F9A2F7BDE4B01B82FA92F0E1973
:100AC0001F09EECF2497F594E794CA15DB0541F78B
:100AD0006401EB2EFA2E8E2D880F8F2D881F8F3FED
:100AE00041F020E030E0A901C701B60138D0811102
:100AF00006C082E290E09093330180933201C701F7
:100B0000B60109C060E070E080E89FEF04C060E0DB
:100B100070E080EC9FE7CDB7DEB7EEE0B2C0911198
:100B200083C0803219F089508550D0F70895FB01B9
:100B3000DC014150504088F08D9181341CF08B35A0
:100B40000CF4805E659161341CF06B350CF4605ED2
:100B5000861B611171F3990B0895881BFCCF40D05F
:100B600008F481E00895E89409C097FB3EF490955D
:100B70008095709561957F4F8F4F9F4F9923A9F076
:100B8000F92F96E9BB279395F69587957795679505
:100B9000B795F111F8CFFAF4BB0F11F460FF1BC049
:100BA0006F5F7F4F8F4F9F4F16C0882311F096E9DC
:100BB00011C0772321F09EE8872F762F05C066238A
:100BC00071F096E8862F70E060E02AF09A95660F43
:100BD000771F881FDAF7880F9695879597F90895FC
:100BE000990F0008550FAA0BE0E8FEEF161617063E
:100BF000E807F907C0F012161306E407F50798F0A6
:100C0000621B730B840B950B39F40A2661F0232BBE
:100C1000242B252B21F408950A2609F4A140A6953A
:100C20008FEF811D811D089599278827089540D051
:100C3000A59F900DB49F900DA49F800D911D112430
:100C400008952F923F924F925F926F927F928F9270
:100C50009F92AF92BF92CF92DF92EF92FF920F934B
:100C60001F93CF93DF93CDB7DEB7CA1BDB0B0FB655
:100C7000F894DEBF0FBECDBF09942A883988488812
:100C80005F846E847D848C849B84AA84B984C884A8
:100C9000DF80EE80FD800C811B81AA81B981CE0F9F
:100CA000D11D0FB6F894DEBF0FBECDBFED01089584
:100CB000A29FB001B39FC001A39F01D0B29F700D4E
:0C0CC000811D1124911D0895F894FFCFB0
:100CCC0035343332315452455751474644534156CB
:100CDC0043585A0236373839305955494F50484ADB
:100CEC004B4C0D424E4D01203031323334353637BA
:100CFC0038392E2D012030202020202020202020AB
:0C0D0C002020202020746573740A000071
:00000001FF
